S0110000414D535F6C61625F332E7372656312
S113000071C0000086C0000084C0000082C00000EF
S113001080C000007EC000007CC000007AC00000E8
S113002078C0000076C0000074C0000072C00000F8
S113003070C000006EC000006CC000006AC0000008
S113004068C0000066C0000064C0000062C0000018
S113005060C000005EC000005CC000005AC0000028
S113006058C0000056C0000054C0000052C0000038
S113007050C000004EC000004CC000004AC0000048
S113008048C0000046C0000044C0000042C0000058
S113009040C000003EC000003CC000003AC0000068
S11300A038C0000036C0000034C0000032C0000078
S11300B030C000002EC000002CC000002AC0000088
S11300C028C0000026C0000024C0000022C0000098
S11300D020C000001EC000001CC000001AC00000A8
S11300E018C0000011241FBECFEFD1E2DEBFCDBF88
S11300F000E00CBF12E0A0E0B2E0E6EDF6E000E0C4
S11301000BBF02C007900D92A235B107D9F770D189
S1130110E0C276CFE2E0F1E0808180648083000079
S1130120000000000000000080818F7B80830000BD
S113013000000895E2E0F1E0208190E0AC01440F7A
S1130140551F4871277E242B20832EB1AC01440F08
S1130150551F440F551F4870277F242B2EB924B3F5
S1130160880F991F82959295907F9827807F982772
S11301708072922F9F7D892B84BB0895CF93C82FC3
S11301808FE19EE40197F1F700C00000E2E0F1E0A6
S113019080818062808380818F7B808300008C2FAC
S11301A082958F70C7DFB6DF8C2FC4DFB3DF87EC97
S11301B090E00197F1F700C00000CF910895CF932C
S11301C0C82F8FE19EE40197F1F700C00000E2E040
S11301D0F1E080818F79808300008C2F82958F706D
S11301E0A9DF98DF8C2FA6DF95DF8FE19EE40197CE
S11301F0F1F700C00000CF910895E1E0F1E08081C3
S1130200886780836B9A9D9A2FEF80E792E0215054
S113021080409040E1F700C00000A59A739A7ADF0D
S11302208FE39CE90197F1F700C0000073DF8FE3CF
S11302309CE90197F1F700C000006CDF8FE39CE9B3
S11302400197F1F700C00000A59864DF88E2B7DFEA
S113025088E0B5DF81E0B3DF86E0B1DF8CE0AFDFBB
S113026083E88093B00087E08093B1008FE38093AC
S1130270B300249A80E480937C0087EE80937A0014
S113028010927B00089581E09ACF0895982F6130F1
S113029011F480EC01C080E8903108F4892B8FCFF1
S11302A008956CCF0895EF92FF920F931F93CF930D
S11302B0DF938C017C01C0E0D0E005C0F70181919F
S11302C07F015CDF2196F80101900020E9F7319766
S11302D0E01BF10BCE17DF0788F3DF91CF911F915D
S11302E00F91FF90EF900895CF93DF93CDB7DEB7D2
S11302F02D970FB6F894DEBF0FBECDBF4AE0BE0106
S11303006F5F7F4FB3D1CE010196CDDF2D960FB62F
S1130310F894DEBF0FBECDBFDF91CF9108950F9348
S11303201F93CF93DF938B0128E0829FC001112498
S1130330806445DFE801085F1F4F89911FDFC01704
S1130340D107D9F782E03BDFDF91CF911F910F9165
S11303500895882311F08EE001C08CE06111816062
S11303602ECF089580E12BCF089584E128CF0895FE
S113037088E125CF08958CE122CF0895853648F48D
S11303802FEF829FC001112464E670E048D160938E
S1130390B30008958091780090917900C297F0F0AD
S11303A08091780090917900833C9105C8F0809108
S11303B07800909179008C379140A0F0809178007A
S11303C0909179008B32924078F0809178009091EE
S11303D079008631934050F080E0089581E00895DB
S11303E082E0089583E0089584E0089585E0089507
S11303F0CF93DF93CDB7DEB72F970FB6F894DEBF58
S11304000FBECDBF8FE0E2E1F2E0DE011196019074
S11304100D928A95E1F7F1DE69E472E080E07FDF16
S113042061E472E081E07BDF69E372E082E077DF20
S113043061E372E083E073DF69E272E084E06FDF1E
S113044061E272E085E06BDF1EDF60E082E01EDFC8
S113045080E092E028DF2FEF87EA91E62150804088
S11304609040E1F700C000000EDF61E083E00EDFA2
S113047089E092E018DF2FEF87EA91E6215080406F
S11304809040E1F700C00000FEDE81E40ADF82E470
S113049008DF83E406DF80E204DF80E002DF81E03E
S11304A000DF82E0FEDE83E0FCDE84E0FADE85E04D
S11304B0F8DE61E080E0EADECE010196F4DE2FEFA3
S11304C087EA91E6215080409040E1F700C00000A7
S11304D060E081E03EDF2FEF83ED90E32150804028
S11304E09040E1F700C0000061E083E0CFDE61E00E
S11304F080E02FDF2FEF87EA91E621508040904083
S1130500E1F700C0000061E081E023DF2FEF87EA1C
S113051091E6215080409040E1F700C0000022DFC6
S113052021DF2FEF83ED90E3215080409040E1F7ED
S113053000C000001ADF19DF18DF17DF2FEF83ED8B
S113054090E3215080409040E1F700C0000013DFA9
S113055012DF2FEF83ED90E3215080409040E1F7CC
S113056000C0000005DF2FEF83ED90E321508040B1
S11305709040E1F700C0000060E080E0EADE83DE46
S113058000ED1AE860E084E081DEC801ADDE61E0E0
S113059084E07CDEC801805A9541A6DE2FEF89E60F
S11305A098E1215080409040E1F700C000000F5FC7
S11305B01F4F0A3D2AE8120729F710E0812FDEDEDB
S11305C08FEF93EF21E0815090402040E1F700C08D
S11305D000001F5F153691F714E6812FCFDE8FEFF1
S11305E093EF21E0815090402040E1F700C00000EB
S11305F0115098F789E1C2DE46DE0DC044DECADE42
S1130600805D4FDE8FEF91EE24E0815090402040DA
S1130610E1F700C00000BEDE813081F715CF97FB03
S1130620072E16F4009406D077FD08D00BD007FCF3
S113063005D03EF4909581959F4F089570956195EE
S11306407F4F0895AA1BBB1B51E107C0AA1FBB1F04
S1130650A617B70710F0A61BB70B881F991F5A954A
S1130660A9F780959095BC01CD010895BB274A3028
S113067031F4992322F4BDE2909581959F4F01C0F6
S1130680BB27FB015527AA27880F991FAA1FA41768
S113069010F0A41B83955051B9F7A05DAA3308F05C
S11306A0A95DA193009779F7B111B1931192CB0190
S11306B000C0DC01FC01672F71917723E1F73297C9
S11306C004C07C916D9370836291AE17BF07C8F329
S10906D00895F894FFCF29
S11306D6583D322C20593D3000583D332C20593D8D
S11306E63100537472696E6720696E205352414D0E
S11306F60004000E1212120D0000000E1315190E3E
S11307060000000E1515150F00040E111F1111110E
S1130716000E11131519110E000F14141F141417BB
S10507260000CD
S9030000FC
