:1000000071C0000086C0000084C0000082C00000F3
:1000100080C000007EC000007CC000007AC00000EC
:1000200078C0000076C0000074C0000072C00000FC
:1000300070C000006EC000006CC000006AC000000C
:1000400068C0000066C0000064C0000062C000001C
:1000500060C000005EC000005CC000005AC000002C
:1000600058C0000056C0000054C0000052C000003C
:1000700050C000004EC000004CC000004AC000004C
:1000800048C0000046C0000044C0000042C000005C
:1000900040C000003EC000003CC000003AC000006C
:1000A00038C0000036C0000034C0000032C000007C
:1000B00030C000002EC000002CC000002AC000008C
:1000C00028C0000026C0000024C0000022C000009C
:1000D00020C000001EC000001CC000001AC00000AC
:1000E00018C0000011241FBECFEFD1E2DEBFCDBF8C
:1000F00000E00CBF12E0A0E0B2E0E6EFF5E000E0C7
:100100000BBF02C007900D92A235B107D9F727D1D6
:1001100070C276CFE2E0F1E08081806480830000ED
:10012000000000000000000080818F7B80830000C1
:1001300000000895E2E0F1E0208190E0AC01440F7E
:10014000551F4871277E242B20832EB1AC01440F0C
:10015000551F440F551F4870277F242B2EB924B3F9
:10016000880F991F82959295907F9827807F982776
:100170008072922F9F7D892B84BB0895CF93C82FC7
:100180008FE19EE40197F1F700C00000E2E0F1E0AA
:1001900080818062808380818F7B808300008C2FB0
:1001A00082958F70C7DFB6DF8C2FC4DFB3DF87EC9B
:1001B00090E00197F1F700C00000CF910895CF9330
:1001C000C82F8FE19EE40197F1F700C00000E2E044
:1001D000F1E080818F79808300008C2F82958F7071
:1001E000A9DF98DF8C2FA6DF95DF8FE19EE40197D2
:1001F000F1F700C00000CF910895E1E0F1E08081C7
:10020000886780836B9A9D9A2FEF80E792E0215058
:1002100080409040E1F700C00000A59A739A7ADF11
:100220008FE39CE90197F1F700C0000073DF8FE3D3
:100230009CE90197F1F700C000006CDF8FE39CE9B7
:100240000197F1F700C00000A59864DF88E2B7DFEE
:1002500088E0B5DF81E0B3DF86E0B1DF8CE0AFCFCF
:10026000089581E0ACCF0895982F613011F480ECAF
:1002700001C080E8903108F4892BA1CF08957ECF8A
:100280000895EF92FF920F931F93CF93DF938C010A
:100290007C01C0E0D0E005C0F70181917F016EDFF5
:1002A0002196F80101900020E9F73197E01BF10B4E
:1002B000CE17DF0788F3DF91CF911F910F91FF9049
:1002C000EF900895CF93DF93CDB7DEB72D970FB69C
:1002D000F894DEBF0FBECDBF4AE0BE016F5F7F4F17
:1002E00055D1CE010196CDDF2D960FB6F894DEBF25
:1002F0000FBECDBFDF91CF9108950F931F93CF9382
:10030000DF938B0128E0829FC0011124806457DFB6
:10031000E801085F1F4F899131DFC017D107D9F776
:1003200082E04DDFDF91CF911F910F9108958823D7
:1003300011F08EE001C08CE06111816040CF089522
:1003400080E13DCF089584E13ACF089588E137CF29
:1003500008958CE134CF0895089580E00895CF93F7
:10036000DF93CDB7DEB72F970FB6F894DEBF0FBE81
:10037000CDBF8FE0E2E1F2E0DE01119601900D9237
:100380008A95E1F73ADF69E472E080E0B6DF61E484
:1003900072E081E0B2DF69E372E082E0AEDF61E348
:1003A00072E083E0AADF69E272E084E0A6DF61E246
:1003B00072E085E0A2DF55DF60E082E055DF80E09B
:1003C00092E05FDF2FEF87EA91E621508040904076
:1003D000E1F700C0000045DF61E083E045DF89E030
:1003E00092E04FDF2FEF87EA91E621508040904066
:1003F000E1F700C0000035DF81E441DF82E43FDF48
:1004000083E43DDF80E23BDF80E039DF81E037DFFE
:1004100082E035DF83E033DF84E031DF85E02FDF0A
:1004200061E080E021DFCE0101962BDF2FEF87EA2C
:1004300091E6215080409040E1F700C0000060E06C
:1004400081E075DF2FEF83ED90E3215080409040F5
:10045000E1F700C0000061E083E006DF61E080E0DA
:1004600066DF2FEF87EA91E6215080409040E1F768
:1004700000C0000061E081E05ADF2FEF87EA91E6DB
:10048000215080409040E1F700C0000059DF58DF64
:100490002FEF83ED90E3215080409040E1F700C0C2
:1004A000000051DF50DF4FDF4EDF2FEF83ED90E391
:1004B000215080409040E1F700C000004ADF49DF52
:1004C0002FEF83ED90E3215080409040E1F700C092
:1004D00000003CDF2FEF83ED90E3215080409040FF
:1004E000E1F700C0000060E080E021DFBADE00ED4F
:1004F0001AE860E084E0B8DEC801E4DE61E084E090
:10050000B3DEC801805A9541DDDE2FEF89E698E120
:10051000215080409040E1F700C000000F5F1F4F66
:100520000A3D2AE8120729F710E0812F15DF8FEF27
:1005300093EF21E0815090402040E1F700C000009F
:100540001F5F153691F714E6812F06DF8FEF93EFCB
:1005500021E0815090402040E1F700C000001150A0
:1005600098F789E1F9DE7DDE0DC07BDEF6DE805D89
:1005700086DE8FEF91EE24E0815090402040E1F73D
:1005800000C00000EADE813081F715CFBB274A307A
:1005900031F4992322F4BDE2909581959F4F01C0DB
:1005A000BB27FB015527AA27880F991FAA1FA4174D
:1005B00010F0A41B83955051B9F7A05DAA3308F041
:1005C000A95DA193009779F7B111B1931192CB0175
:1005D00000C0DC01FC01672F71917723E1F73297AE
:1005E00004C07C916D9370836291AE17BF07C8F30E
:0605F0000895F894FFCF0E
:1005F600583D322C20593D3000583D332C20593D72
:100606003100537472696E6720696E205352414DF2
:100616000004000E1212120D0000000E1315190E22
:100626000000000E1515150F00040E111F111111F3
:10063600000E11131519110E000F14141F141417A0
:020646000000B2
:00000001FF
