:1000000071C0000086C0000084C0000082C00000F3
:1000100080C000007EC000007CC000007AC00000EC
:1000200078C0000076C0000074C0000072C00000FC
:1000300070C000006EC000006CC000006AC000000C
:1000400068C0000066C0000064C0000062C000001C
:1000500060C000005EC000005CC000005AC000002C
:1000600058C0000056C0000054C0000052C000003C
:1000700050C000004EC000004CC000004AC000004C
:1000800048C0000046C0000044C0000042C000005C
:1000900040C000003EC000003CC000003AC000006C
:1000A00038C0000036C0000034C0000032C000007C
:1000B00030C000002EC000002CC000002AC000008C
:1000C00028C0000026C0000024C0000022C000009C
:1000D00020C000001EC000001CC000001AC00000AC
:1000E00018C0000011241FBECFEFD1E2DEBFCDBF8C
:1000F00000E00CBF12E0A0E0B2E0EAE4F5E000E0CE
:100100000BBF02C007900D92A235B107D9F704D1F9
:100110001AC276CFE2E0F1E0808180648083000043
:10012000000000000000000080818F7B80830000C1
:1001300000000895E2E0F1E0208190E0AC01440F7E
:10014000551F4871277E242B20832EB1AC01440F0C
:10015000551F440F551F4870277F242B2EB924B3F9
:10016000880F991F82959295907F9827807F982776
:100170008072922F9F7D892B84BB0895CF93C82FC7
:100180000000E2E0F1E080818062808300008C2F3B
:1001900082958F70CFDFBEDF8C2FCCDFBBDF0000FE
:1001A000CF910895CF93C82F0000E2E0F1E0808165
:1001B0008F7D808300008C2F82958F70BBDFAADF3C
:1001C0008C2FB8DFA7DF8FE39FE10197F1F700C025
:1001D0000000CF910895E1E0F1E08081886780839D
:1001E0006B9A9D9A2FEF80E792E0215080409040DB
:1001F000E1F700C00000A59A739A8CDF8FE39CE9B9
:100200000197F1F700C0000085DF8FE39CE90197BB
:10021000F1F700C000007EDF8FE39CE90197F1F762
:1002200000C00000A59876DF88E2BCDF88E0BADF76
:1002300081E0B8DF86E0B6DF8CE0B4CF089581E3DB
:10024000B1CF0895982F613311F480EC01C080E89C
:10025000903108F4892BA6CF089590CF0895EF929E
:10026000FF920F931F93CF93DF938C017C01C0E02B
:10027000D0E005C0F70181917F0180DF2196F80170
:1002800001900020E9F73197E01BF10BCE17DF0753
:1002900088F3DF91CF911F910F91FF90EF90089518
:1002A000CF93DF931F92CDB7DEB789839A8366DF42
:1002B0000F90DF91CF9108950F931F93CF93DF930A
:1002C000D62FC72F5BDF0D2F1C2FC0E08C2F6ADFCE
:1002D000F80181918F0152DFCF5FC830B9F7DF910C
:1002E000CF911F910F910895882311F08EE001C0E6
:1002F0008CE06111816056CF089580E153CF08955D
:1003000084E150CF089588E14DCF089584E14ACF2C
:100310000895089580E00895CF93DF93CDB7DEB7B9
:100320002F970FB6F894DEBF0FBECDBF8FE0E2E18E
:10033000F2E0DE01119601900D928A95E1F74BDF14
:1003400069E472E080E0B8DF61E472E081E0B4DF8C
:1003500069E372E082E0B0DF61E372E083E0ACDF8A
:1003600069E272E084E0A8DF61E272E085E0A4DF88
:1003700066DF60E082E066DF80E092E070DF2FEF12
:1003800087EA91E6215080409040E1F700C00000EC
:1003900056DF61E083E056DF89E092E060DF2FEF17
:1003A00087EA91E6215080409040E1F700C00000CC
:1003B00046DF81E452DF82E450DF83E44EDF80E2F7
:1003C0004CDF80E04ADF81E048DF82E046DF83E007
:1003D00044DF84E042DF85E040DF61E080E032DF3F
:1003E000CE0101963CDF2FEF87EA91E62150804055
:1003F0009040E1F700C0000060E081E075DF2FEF82
:1004000083ED90E3215080409040E1F700C0000070
:1004100061E083E017DF61E080E066DF2FEF87EACD
:1004200091E6215080409040E1F700C0000061E07B
:1004300081E05ADF2FEF87EA91E62150804090401B
:10044000E1F700C0000059DF58DF2FEF83ED90E3A4
:10045000215080409040E1F700C0000051DF50DFA4
:100460004FDF4EDF2FEF83ED90E32150804090402F
:10047000E1F700C000004ADF49DF2FEF83ED90E392
:10048000215080409040E1F700C000003CDF2FEF9A
:1004900083ED90E3215080409040E1F700C00000E0
:1004A00060E080E021DFCBDE00ED1AE860E084E070
:1004B000C9DEC801F5DE61E084E0C4DEC801805A0F
:1004C0009541EEDE2FEF89E698E121508040904083
:1004D000E1F700C000000F5F1F4F0A3D2AE8120736
:1004E00029F710E0812F15DF8FEF93EF21E0815086
:1004F00090402040E1F700C000001F5F153691F7E3
:1005000014E6812F06DF8FEF93EF21E081509040BA
:100510002040E1F700C00000115098F789E1F9DEB2
:100520008EDE0DC08CDEF6DE805D97DE8FEF91EE05
:1005300024E0815090402040E1F700C00000EADE56
:0A054000813081F715CFF894FFCF4A
:10054A00583D322C20593D3000583D332C20593D1E
:10055A003100537472696E6720696E205352414D9F
:10056A000004000E1212120D0000000E1315190ECF
:10057A000000000E1515150F00040E111F111111A0
:10058A00000E11131519110E000F14141F1414174D
:02059A0000005F
:00000001FF
