S00F00004C6162364170702E73726563AF
S113000071C0000086C0000084C0000082C00000EF
S113001080C000007EC000007CC000007AC00000E8
S113002078C0000076C0000074C0000072C00000F8
S113003070C000006EC000006CC000006AC0000008
S113004068C0000066C0000064C0000062C0000018
S113005060C000005EC000005CC000005AC0000028
S113006058C0000056C0000054C0000052C0000038
S113007050C000004EC000004CC000004AC0000048
S113008048C0000046C0000044C0000042C0000058
S113009040C000003EC000003CC000003AC0000068
S11300A038C0000036C0000034C0000032C0000078
S11300B030C000002EC000002CC000002AC0000088
S11300C028C0000026C0000024C0000022C0000098
S11300D020C000001EC000001CC000001AC00000A8
S11300E018C0000011241FBECFEFD1E2DEBFCDBF88
S11300F000E00CBF12E0A0E0B2E0E0ECF4E000E0CD
S11301000BBF02C007900D92AA30B107D9F7DBD01C
S1130110D5C176CFE2E0F1E0808180648083000085
S1130120000000000000000080818F7B80830000BD
S113013000000895E2E0F1E0208190E0AC01440F7A
S1130140551F4871277E242B20832EB1AC01440F08
S1130150551F440F551F4870922F977F942B9EB9BB
S113016080FDA59A80FFA5980895CF93C82F8FE1AD
S11301709EE40197F1F700C00000E2E0F1E0808125
S11301808F79808300008C2F82958F70D3DFC2DF3C
S11301908C2FD0DFBFDF8FE19EE40197F1F700C021
S11301A00000CF910895CF93C82F8FE19EE401976B
S11301B0F1F700C00000E2E0F1E08081806280831A
S11301C080818F7B808300008C2F82958F70B2DFBB
S11301D0A1DF8C2FAFDF9EDF87EC90E00197F1F772
S11301E000C00000CF910895E1E0F1E080818867CC
S11301F080836B9A9D9A2FEF80E792E02150804094
S11302009040E1F700C00000A59A739A83DF8FE362
S11302109CE90197F1F700C000007CDF8FE39CE9C3
S11302200197F1F700C0000075DF8FE39CE90197A7
S1130230F1F700C00000A5986DDF88E296DF88E042
S113024094DF81E092DF86E090DF8CE08EDF83E84C
S11302508093B00087E08093B1008FE38093B30074
S1130260249A80E480937C0087EE80937A00109235
S11302707B00089581E079CF982F613011F480ECF0
S113028001C080E8903108F4892B6FCF0F931F933E
S1130290CF93DF93EC018C01FE0101900020E9F77C
S11302A03197EC1BFD0BC8018C1B9D0B8E179F0710
S11302B028F4F80181918F0176DFEECFDF91CF91A1
S11302C01F910F91089590DFD5DF60E082E0D4DFC5
S11302D080E092E0DBDF2EE448E060E875E280E055
S11302E090E00CD0C0E0D0E0CE0178D086E092E07F
S11302F06AD02196CA30D105B9F7F4CF8F929F9274
S1130300AF92BF92CF92DF92EF92FF924B015C01CA
S11303106B017C018CE2C81A81E0D80AE108F1087B
S113032085EDC81680ECD80681E0E806F104D8F51E
S113033045504430C0F530E23093C00038E130938A
S1130340C100440F4093C200253421F42091C2001F
S1130350206205C02F3429F42091C2002063209329
S1130360C2007501640180E8C80E84E8D81E8EE1DD
S1130370E81EF11CC701B60123E0660F771F881F32
S1130380991F2A95D1F7A5019401E4E0220F331FA8
S1130390441F551FEA95D1F73CD0215031093093C1
S11303A0C5002093C400FF90EF90DF90CF90BF90E2
S11303B0AF909F908F9008959091C00095FFFCCFCF
S11303C08093C6000895CF93DF93EC01899188232D
S11303D011F0F2DFFBCFDF91CF910895CF93DF933C
S11303E0CDB7DEB727970FB6F894DEBF0FBECDBFEB
S11303F04AE0BE016F5F7F4F2ED0CE010196E3DF4E
S113040027960FB6F894DEBF0FBECDBFDF91CF9114
S11304100895A1E21A2EAA1BBB1BFD010DC0AA1F41
S1130420BB1FEE1FFF1FA217B307E407F50720F059
S1130430A21BB30BE40BF50B661F771F881F991FD4
S11304401A9469F760957095809590959B01AC011D
S1130450BD01CF010895BB274A3031F4992322F41A
S1130460BDE2909581959F4F01C0BB27FB015527A5
S1130470AA27880F991FAA1FA41710F0A41B8395FD
S11304805051B9F7A05DAA3308F0A95DA193009774
S113049079F7B111B1931192CB0100C0DC01FC01D9
S11304A0672F71917723E1F7329704C07C916D93A4
S11304B070836291AE17BF07C8F30895F894FFCF15
S10D04C04164696F73000D0A000027
S9030000FC
