S00F000052544F535F48482E73726563DE
S113000071C000008EC000008CC000008AC00000D7
S113001088C0000086C0000084C0000082C00000C8
S113002080C000007EC000007CC000007AC00000D8
S113003078C0000076C0000074C0000072C00000E8
S113004070C000006EC000006CC000006AC00000F8
S113005068C0000066C0000064C0000062C0000008
S113006060C000005EC000005CC000005AC0000018
S113007058C0000056C0000054C0000052C0000028
S113008050C000004EC000004CC000004AC0000038
S113009048C0000046C0000044C0000042C0000048
S11300A040C000003EC000003CC000003AC0000058
S11300B038C0000036C0000034C000008FC2000009
S11300C030C000002EC000002CC000002AC0000078
S11300D028C0000026C0000024C0000022C0000088
S11300E020C0000011241FBECFEFD1E2DEBFCDBF80
S11300F000E00CBF12E0A0E0B2E0ECEEFCE000E0B7
S11301000BBF02C007900D92A231B107D9F728E0C6
S1130110A2E1B2E001C01D92A532B207E1F737D0E7
S1130120E3C56ECF8FEF84B915B80895883060F4B5
S113013043B121E030E0B90102C0660F771F8A9510
S1130140E2F7CB01842785B90895CF93DF931F92FB
S11301501F92CDB7DEB7B5D39A83898380E0E6DFFB
S113016068EE73E0CE010196F8D4F8CFCF93DF9315
S11301701F921F92CDB7DEB7A4D39A83898381E0FF
S1130180D5DF64EF71E0CE010196E7D4F8CFCADF82
S1130190A12CB12CC12CD12CE12CF12C00E020E0BD
S11301A030E045E550E062E072E085EA90E079D223
S11301B020E030E045E550E067E072E086EB90E057
S11301C070D250D3FFCFFC010396928381832FEF2B
S11301D03FEF3483238396838583908787831082BC
S11301E00895FC01118610860895CF93DF93FC01D6
S11301F0DB0121813281E9018A819B8113969C93E1
S11302008E9312978181928115969C938E93149765
S11302108A819B81EC017D836C83E9017B836A8302
S1130220728361831996FC93EE93189780818F5F94
S11302308083DF91CF910895CF93DF93EB014881C1
S113024059814F3F2FEF520731F4DC011796ED919E
S1130250FC91189717C0FC013396DC0115962D917B
S11302603C911697D9012D913C914217530750F0B8
S11302700280F381E02DA281B3812D913C9142173C
S11302805307B0F7A281B381BB83AA831596DC938D
S1130290CE931497FD83EC83D383C2839987888795
S11302A0FC0120812F5F2083DF91CF910895FC0111
S11302B0A281B3818481958115969C938E93149722
S11302C0A481B5818281938113969C938E93129716
S11302D0A085B18511968D919C911297E817F90725
S11302E031F48481958112969C938E931197118693
S11302F010868C9181508C93089531E1FC013083F8
S1130300319722E220833197A3E3A083319760835E
S1130310319770833197108231971082319760E85A
S11303206083319710823197108231971082319710
S113033062E06083319763E06083319764E06083B7
S1130340319765E06083319766E06083319767E0B9
S11303506083319768E06083319769E06083319707
S113036060E1608331973083319732E13083319794
S113037033E13083319734E13083319735E1308391
S1130380319736E13083319737E13083319738E163
S11303903083319739E13083319730E230833197BC
S11303A031E2308331972083319723E220833197E0
S11303B0408331975083319726E22083319727E297
S11303C02083319728E22083319729E220833197D3
S11303D020E32083319721E32083899708951092A5
S11303E0290189EF809328018BE080932101E3E7C1
S11303F0F0E0808182608083A0912308B09124087A
S1130400CD91CDBFDD91DEBFFF91EF91DF91CF9113
S1130410BF91AF919F918F917F916F915F914F9118
S11304203F912F911F910F91FF90EF90DF90CF900C
S1130430BF90AF909F908F907F906F905F904F9000
S11304403F902F901F900F900CBE0F900BBE0F90FB
S11304500FBE0F90089581E008950F920FB6F8949F
S11304600F920BB60F920CB60F921F9211242F927B
S11304703F924F925F926F927F928F929F92AF9230
S1130480BF92CF92DF92EF92FF920F931F932F931D
S11304903F934F935F936F937F938F939F93AF9308
S11304A0BF93CF93DF93EF93FF93A0912308B09171
S11304B024080DB60D920EB60D9294D3A091230884
S11304C0B0912408CD91CDBFDD91DEBFFF91EF91B6
S11304D0DF91CF91BF91AF919F918F917F916F9158
S11304E05F914F913F912F911F910F91FF90EF904A
S11304F0DF90CF90BF90AF909F908F907F906F9040
S11305005F904F903F902F901F900F900CBE0F90D4
S11305100BBE0F900FBE0F9008950F920FB6F89474
S11305200F920BB60F920CB60F921F9211242F92BA
S11305303F924F925F926F927F928F929F92AF926F
S1130540BF92CF92DF92EF92FF920F931F932F935C
S11305503F934F935F936F937F938F939F93AF9347
S1130560BF93CF93DF93EF93FF93A0912308B091B0
S113057024080DB60D920EB60D92ADD133D3A091D1
S11305802308B0912408CD91CDBFDD91DEBFFF914A
S1130590EF91DF91CF91BF91AF919F918F917F9117
S11305A06F915F914F913F912F911F910F91FF9008
S11305B0EF90DF90CF90BF90AF909F908F907F90FF
S11305C06F905F904F903F902F901F900F900CBEB4
S11305D00F900BBE0F900FBE0F9008959EDF1895DD
S11305E0CF93DF93EC0167D1209112023091130273
S11305F0C9018C0F9D1F8C3D45E0940758F42817C2
S1130600390758F4E901CC5EDD4F909313028093CF
S1130610120205C0C0E0D0E002C0C0E0D0E01CD2AD
S1130620CE01DF91CF9108950895CAE1D8E0888181
S11306308230E8F312DFFBCFCF93DF93EC01E0913C
S11306402308F0912408938382838091F807909182
S1130650F907C817D90760F460912308709124083A
S113066080910408909105086E5F7F4FE5DD16C008
S113067060912308709124088091060890910708DE
S11306806E5F7F4FD9DD8091000290910102C817FF
S1130690D90720F4D0930102C0930002DF91CF91D7
S11306A008954F925F926F927F928F929F92AF9232
S11306B0BF92CF92DF92EF92FF920F93CF93DF938B
S11306C05C014B013A01290181E290E089DFEC01F0
S11306D0892B09F49CC0C114D10409F094C0C3014E
S11306E07FDF988F8F8B009719F4CE019DDF8FC029
S11306F0A30165EA70E0E2D29301215031098F89A8
S1130700988D3C01620E731E48E050E0B401CE01A6
S11307104996DBD218A21E8A6E0182E0C80ED11C53
S1130720C6015FDDCE010C965CDDD987C88781E008
S113073090E09D878C87DB8BCA8BA201B501C30136
S1130740DCDD99838883E114F10419F0F701D18386
S1130750C0830FB6F8940F928091FA078F5F80934D
S1130760FA078091230890912408892B49F4D093A7
S11307702408C09323088091FA07813081F449C08A
S11307808091F50781110BC0E0912308F0912408B2
S11307908689081720F0D0932408C09323088E89F3
S11307A09091F707981710F48093F7079091F0074A
S11307B09F5F9093F0079091F607981710F4809339
S11307C0F60790E09C01220F331F220F331F220FE4
S11307D0331F820F931FB601865E974F06DD0F907D
S11307E00FBE8091F507882351F0E0912308F09122
S11307F024088689801728F430DE81E023C081E054
S113080021C081E01FC0D88ECF8AC60171CF8FEF7F
S113081019C08AE198E0D7DC81E198E0D4DC88E073
S113082098E0D1DC8BEF97E0CEDC81E198E0909307
S113083007088093060888E098E090930508809361
S11308400408ADCFDF91CF910F91FF90EF90DF902F
S1130850CF90BF90AF909F908F907F906F905F905C
S11308604F900895AF92BF92CF92DF92EF92FF9292
S11308700F93A12CB12CC12CD12CE12CF12C00E034
S113088020E030E045E550E06CE072E085E193E083
S113089008DF813041F4F8948093F5071092F9074A
S11308A01092F8079CDD0F91FF90EF90DF90CF90AE
S11308B0BF90AF9008958091F4078F5F8093F40701
S11308C008950FB6F8940F928091F8079091F90764
S11308D00F900FBE08950F931F93CF93DF938091D2
S11308E0F4078111AFC08091F8079091F907019640
S11308F09093F9078093F8078091F8079091F9078E
S1130900892B99F580910608909107082091040895
S11309103091050830930708209306089093050842
S1130920809304088091F1078F5F8093F107E09131
S11309300608F09107088081811107C08FEF9FEFAF
S1130940909301028093000210C0E0910608F09198
S113095007080580F681E02D0680F781E02D82816D
S1130960938190930102809300022091F8073091C3
S1130970F90780910002909101022817390708F4C1
S113098066C0E0910608F09107088081882399F0F9
S1130990E0910608F09107080580F681E02DC681F4
S11309A0D7818A819B812091F8073091F907281714
S11309B03907F8F419C08FEF9FEF909301028093E9
S11309C0000245C0E0910608F09107080580F68111
S11309D0E02DC681D7818A819B812091F8073091CF
S11309E0F9072817390728F490930102809300022D
S11309F02EC08E010E5F1F4FC80159DC8C899D8962
S1130A00892B19F0CE010C9652DC8E899091F60751
S1130A10981710F48093F60790E09C01220F331F7F
S1130A20220F331F220F331F820F931FB801865EDC
S1130A30974FDBDBE0910608F09107088081811174
S1130A40C1CFB9CF8091F3078F5F8093F307DF9114
S1130A50CF911F910F910895CF92DF92EF92FF9261
S1130A600F931F93CF93DF930FB6F8940F92809157
S1130A70F40781508093F4078091F40781115FC0DB
S1130A808091FA0781112FC05DC0D7011596ED91B1
S1130A90FC911697C681D781CE010C9608DC8E0195
S1130AA00E5F1F4FC80103DC8E899091F6079817DB
S1130AB010F48093F60790E09C01220F331F220F5D
S1130AC0331F220F331F820F931FB801865E974F87
S1130AD08CDBE0912308F09124089E89868998177D
S1130AE058F0DC2C09C0D12C0F2EFBEFEF2EF7E0D1
S1130AF0FF2EF02DCC24C394F70180818111C5CF42
S1130B008091F307882379F08091F307882391F08B
S1130B10E2DE8091F30781508093F3078091F3071D
S1130B208111F6CF07C0F1E0DF1621F08091F207C2
S1130B30813039F41092F20790DC81E003C080E048
S1130B4001C080E00F900FBEDF91CF911F910F91F4
S1130B50FF90EF90DF90CF9008950F931F93CF9362
S1130B60DF938C01EB01A7DEF80180819181C80F2E
S1130B70D91F2091F8073091F9072817390768F42D
S1130B80C817D90730F58091F8079091F907D183F8
S1130B90C0838C179D07A0F40BC0C817D907A8F011
S1130BA08091F8079091F9078C179D0770F011C098
S1130BB08091230890912408029679DBCE013CDDD4
S1130BC04BDF81110AC049DC08C0F801D183C0831E
S1130BD0EFCFF801D183C083F3CFDF91CF911F9181
S1130BE00F9108958091F407811113C08091F60745
S1130BF090E0FC01EE0FFF1FEE0FFF1FEE0FFF1F33
S1130C008E0F9F1FFC01E65EF74F8081882329F039
S1130C101BC081E08093F20708958091F60781500C
S1130C208093F6078091F60790E0FC01EE0FFF1F1A
S1130C30EE0FFF1FEE0FFF1F8E0F9F1FFC01E65EDE
S1130C40F74F8081882349F38091F60790E09C0157
S1130C50220F331F220F331F220F331F280F391F78
S1130C60D901A65EB74F1196ED91FC9112970280BF
S1130C70F381E02D1296FC93EE931197235E374F88
S1130C80E217F30729F422813381FD0132832183A2
S1130C90FC01EE0FFF1FEE0FFF1FEE0FFF1F8E0F65
S1130CA09F1FFC01E65EF74F0180F281E02D8681F3
S1130CB0978190932408809323080895DC0101C050
S1130CC06D9341505040E0F70895FB01DC01415021
S1130CD0504048F001900D920020C9F701C01D92C8
S10F0CE041505040E0F70895F894FFCF15
S1130CECFFFF4C454431004C4544320049444C45CB
S1050CFC0000F2
S9030000FC
