:107800000C943E3C0C944F3C0C944F3C0C944F3CDD
:107810000C944F3C0C944F3C0C944F3C0C944F3CBC
:107820000C944F3C0C944F3C0C944F3C0C944F3CAC
:107830000C944F3C0C944F3C0C944F3C0C944F3C9C
:107840000C944F3C0C944F3C0C944F3C0C944F3C8C
:107850000C944F3C0C944F3C0C944F3C0C944F3C7C
:107860000C944F3C0C944F3C0C944F3C0C944F3C6C
:107870000C944F3C0C944F3C0C944F3C11241FBE75
:10788000CFEFD8E0DEBFCDBF0E946E3C0C94AC3F82
:10789000CFEFD8E0DEBFCDBF11241FBE1FC00C94B8
:1078A000003C813610F087550895813410F08753DD
:1078B0000895803310F480E00895805308950F9365
:1078C0001F93062F0E94513C182F802F0E94513C7D
:1078D0001295107F810F1F910F9108952F923F9263
:1078E0004F925F926F927F928F929F92AF92BF92D0
:1078F000CF92DF92EF92FF920F931F93DF93CF937C
:10790000CDB7DEB7C455D0400FB6F894DEBF0FBE7A
:10791000CDBFF8948BB18C608BB91092800081E060
:10792000809381008091600088618093600086E48C
:107930008093600040E050E031E106C0809160003B
:1079400087FF02C021E003C04A99F8CF20E01092DF
:1079500085001092840006C08091600087FF02C0FD
:1079600021E002C04A9BF8CF313130F4809184008D
:1079700090918500480F591F315019F0222321F3AF
:1079800021E0809160008861809360001092600027
:10799000213041F4109281008BB1837F8BB9E0E0FC
:1079A000F0E0099480E49CE90197F1F7CA0154E002
:1079B000969587955A95E1F70E94363F0E94553F6C
:1079C0000E94553F853531F70E94553F853511F7A7
:1079D0000E94553F8535F1F683E60E94463F84E3D9
:1079E0000E94463F85E30E94463F82E60E94463F52
:1079F00082E30E94463F80E20E94463F86E70E9463
:107A0000463F82E30E94463F8EE20E94463F89E362
:107A10000E94463F82E40E94463F1D8A8DE00E94FC
:107A2000463F8EE30E94463F81E10E94463F10E0C0
:107A30000E94553FE5E1F0E0EC0FFD1FE10FF11D65
:107A400080838535A9F3833019F488E58D8B03C0D5
:107A50001F5F8A3069F7812F90E0E4E1F0E0EC0FDE
:107A6000FD1FE80FF91F1082FC01329725E130E07D
:107A70002C0F3D1FE20FF31F80818D3009F410821F
:107A800083E10E94463FCE0145960E94893FFD88D2
:107A900037E6F31679F03F1528F085E6F81609F079
:107AA000DFC118C09DE6F916A9F0E0E7FE1609F05F
:107AB000D7C14FC08BE20E94463F8DE00E94463FF7
:107AC00081E10E94463F80E49CE90197F1F7109222
:107AD000810065CF8F89688D0E945F3C182F898D4A
:107AE0006A8D0E945F3C63961FAF639762961FAEDC
:107AF000629763960EAD1FAD6397080F111D8E89B7
:107B0000873799F48B8D6C8D0E945F3CE82EF5E6EB
:107B1000FF1631F4F999FECFC8016E2D0E949E3FE9
:107B20008D898D3611F4F801E0828D89853629F42E
:107B3000C8010E94963F182F02C0F80110818BE205
:107B40000E94463F8DE00E94463F812F0E94653F84
:107B500065CF8BE20E94463F8DE00E94463F2A9609
:107B60001FAE2A978E89853621F4F1E02A96FFAF61
:107B70002A9766246A94762C4301442455242C9633
:107B80001FAE1EAE2C9781E10E94463F10E00E947E
:107B9000553FE5E1F0E0EC0FFD1FE10FF11D8083A3
:107BA0001F5F8A30A1F783E10E94463FE4E1F0E0E5
:107BB000EC0FFD1FE10FF11D10828E896F890E946D
:107BC0005F3C082F888D698D0E945F3C182F61965D
:107BD0008FAF619760961FAE60978A8D6B8D0E9404
:107BE0005F3C6196EEACFFAC6197E80EF11C8C8DAA
:107BF0006D8D0E945F3CB12EB00EB80EBE0CA02F52
:107C0000B0E09D01220F331F2F963FAF2EAF2F976D
:107C1000EEE1F0E0EC0FFD1FE20FF31F30812D9637
:107C20003FAF2D971596AA0FBB1FE1E0F0E0EC0FD8
:107C3000FD1FAE0FBF1F54962C908230F1F48E8D35
:107C40006F8D0E945F3C29968FAF299728961FAEB3
:107C5000289788A169A10E945F3C29962EAD3FAD6F
:107C60002997280F311D2C963FAF2EAF2C972996C0
:107C70003FAD2997B30EB20E82C0813021F4CC24DF
:107C8000C39401E07EC0882309F079C08FEF6816A5
:107C90008FEF78068FEF88068FEF980619F437017B
:107CA0008824992421E0C22ED12CCC0EDD1EC40CD8
:107CB000D51C2C960EAD1FAD2C9794E0000F111F14
:107CC0009A95E1F7040D151D060D171D33244DC0BF
:107CD000EEE1F0E0EC0FFD1FEE0DFF1DAFE1B0E0B7
:107CE000AC0FBD1FAE0DBF1D80816C910E945F3C2B
:107CF000A82EE0E2F0E0EC0FFD1FEE0DFF1D21E2EB
:107D000030E02C0F3D1FE20EF31E8081F7016081F1
:107D10000E945F3C282F2A96FFAD2A97F13021F46C
:107D2000F601A082818313C065968FAF6597649634
:107D30001FAE649765968EAD9FAD65978A0D911DB8
:107D400031E0F8010C0130935700E89511242A0D19
:107D5000B20E82E090E0480E591E94E0390EE2E047
:107D6000F0E0CE0EDF1E0E5F1F4FE32CFF242F9698
:107D70002EAD3FAD2F97E216F3060CF4A9CFCC241D
:107D800000E02D968FAD2D97622D0E945F3CB80EBE
:107D900009F066C08EE20E94463F30E84316510467
:107DA00008F001E02A968FAD2A97813019F0013052
:107DB00009F052C02C96EEADFFAD2C977F0100E08C
:107DC00010E084E0EE0CFF1C001F111F8A95D1F714
:107DD000E60CF71C081D191D2A96FFAD2A97F130F5
:107DE000B1F4DD240EC0F999FECF8E0D9F1DE1E0A8
:107DF000F0E0EC0FFD1FED0DF11D60810E949E3F34
:107E0000D3948D2D90E08415950568F31CC020E077
:107E1000E21620E0F20622E0020720E0120700F559
:107E2000F70133E030935700E89507B600FCFDCF2B
:107E300085E080935700E89507B600FCFDCF81E10F
:107E400080935700E8958AE20E94463F66246A9430
:107E5000762C430144245524CC2009F494CE02C04E
:107E60008DE201C08BE20E94463FD8CD24E096957A
:107E700087952A95E1F79093CD008093CC0088E117
:107E80008093C90086E08093CA0008951F93182F3D
:107E90008D3019F48AE00E94463F8091C80085FF2A
:107EA000FCCF1093CE001F9108958091C80087FFEA
:107EB000FCCF8091CE0008958F708A3010F0895ADF
:107EC00001C0805D0E94463F08951F93182F829540
:107ED0008F700E945C3F812F0E945C3F1F9108952C
:107EE0000F931F938C01812F82958F700E945C3FAE
:107EF000812F0E945C3FC80134E0969587953A95A2
:107F0000E1F70E945C3F802F0E945C3F1F910F9120
:107F10000895CF93DF93EC0103C021960E94463F62
:107F200088818823D1F7DF91CF910895F999FECF09
:107F300092BD81BDF89A992780B50895262FF999A9
:107F4000FECF1FBA92BD81BD20BD0FB6F894FA9A3C
:0C7F5000F99A0FBE01960895F894FFCF37
:040000030000780081
:00000001FF
