:1000000071C0000086C0000084C0000082C00000F3
:1000100080C000007EC000007CC000007AC00000EC
:1000200078C0000076C0000074C0000072C00000FC
:1000300070C000006EC000006CC000006AC000000C
:1000400068C0000066C0000064C0000062C000001C
:1000500060C000005EC000005CC000005AC000002C
:1000600058C0000056C0000054C0000052C000003C
:1000700050C000004EC000004CC000004AC000004C
:1000800048C0000046C0000044C0000042C000005C
:1000900040C000003EC000003CC000003AC000006C
:1000A00038C0000036C0000034C0000032C000007C
:1000B00030C000002EC000002CC000002AC000008C
:1000C00028C0000026C0000024C0000022C000009C
:1000D00020C000001EC000001CC000001AC00000AC
:1000E00018C0000011241FBECFEFD1E2DEBFCDBF8C
:1000F00000E00CBF12E0A0E0B2E0EAEFF4E000E0C4
:100100000BBF02C007900D92AE30B107D9F7EAD00D
:10011000F2C176CFE2E0F1E080818064808300006C
:10012000000000000000000080818F7B80830000C1
:1001300000000895E2E0F1E0208190E0AC01440F7E
:10014000551F4871277E242B20832EB1AC01440F0C
:10015000551F440F551F4870277F242B2EB924B3F9
:10016000880F991F82959295907F9827807F982776
:100170008072922F9F7D892B84BB0895CF93C82FC7
:100180008FE19EE40197F1F700C00000E2E0F1E0AA
:1001900080818062808380818F7B808300008C2FB0
:1001A00082958F70C7DFB6DF8C2FC4DFB3DF87EC9B
:1001B00090E00197F1F700C00000CF910895CF9330
:1001C000C82F8FE19EE40197F1F700C00000E2E044
:1001D000F1E080818F79808300008C2F82958F7071
:1001E000A9DF98DF8C2FA6DF95DF8FE19EE40197D2
:1001F000F1F700C00000CF910895E1E0F1E08081C7
:10020000886780836B9A9D9A2FEF80E792E0215058
:1002100080409040E1F700C00000A59A739A7ADF11
:100220008FE39CE90197F1F700C0000073DF8FE3D3
:100230009CE90197F1F700C000006CDF8FE39CE9B7
:100240000197F1F700C00000A59864DF88E2B7DFEE
:1002500088E0B5DF81E0B3DF86E0B1DF8CE0AFDFBF
:1002600083E88093B00087E08093B1008FE38093B0
:10027000B300249A80E480937C0087EE80937A0018
:1002800010927B00089581E09ACF0895982F6130F5
:1002900011F480EC01C080E8903108F4892B8FCFF5
:1002A0000895EF92FF920F931F93CF93DF938C01EA
:1002B0007C01C0E0D0E005C0F70181917F015EDFE5
:1002C0002196F80101900020E9F73197E01BF10B2E
:1002D000CE17DF0788F3DF91CF911F910F91FF9029
:1002E000EF9008958ADFCFDF60E082E0CFDF80E02B
:1002F00092E0D7DF2EE448E060E875E280E090E02D
:100300000CD0C0E0D0E0CE0186D08AE092E075D07B
:100310002196CA30D105B9F7F4CFCF92DF92EF9290
:10032000FF920F931F93522F8B019C010C5211408F
:1003300021093109053D104C2140310508F04EC01E
:100340004550443008F04AC020E22093C00028E124
:100350002093C100440F4093C200553431F4E2ECC5
:10036000F0E020812062208307C05F3429F4E2ECB2
:10037000F0E02081206320836B017C0120E8C20E25
:1003800024E8D21E2EE1E21EF11CCC0CDD1CEE1C7A
:10039000FF1CCC0CDD1CEE1CFF1CCC0CDD1CEE1C71
:1003A000FF1CDC01CB01880F991FAA1FBB1F880F00
:1003B000991FAA1FBB1F9C01AD01220F331F441FB1
:1003C000551F220F331F441F551FC701B6013ED0D2
:1003D000215031093093C5002093C4001F910F9123
:1003E000FF90EF90DF90CF900895E0ECF0E09081E7
:1003F00095FFFDCF8093C6000895CF93DF93EC0166
:100400008881882329F02196F0DF89918111FCCF22
:10041000DF91CF910895CF93DF93CDB7DEB72797C4
:100420000FB6F894DEBF0FBECDBF4AE0BE016F5FCE
:100430007F4F2ED0CE010196E0DF27960FB6F894BD
:10044000DEBF0FBECDBFDF91CF910895A1E21A2E7E
:10045000AA1BBB1BFD010DC0AA1FBB1FEE1FFF1F68
:10046000A217B307E407F50720F0A21BB30BE40BB8
:10047000F50B661F771F881F991F1A9469F76095FF
:100480007095809590959B01AC01BD01CF010895B9
:10049000BB274A3031F4992322F4BDE2909581952F
:1004A0009F4F01C0BB27FB015527AA27880F991F23
:1004B000AA1FA41710F0A41B83955051B9F7A05D93
:1004C000AA3308F0A95DA193009779F7B111B19310
:1004D0001192CB0100C0DC01FC01672F71917723E1
:1004E000E1F7329704C07C916D9370836291AE17EF
:0A04F000BF07C8F30895F894FFCF8A
:0E04FA00497420776F726B733F000D0A00008B
:00000001FF
