:020000022000DC
:100000000D94F4000D9416010D9416010D94160133
:100010000D9416010D9416010D9416010D94160100
:100020000D9416010D9416010D9416010D941601F0
:100030000D9416010D9416010D9416010D941601E0
:100040000D9416010D9416010D9416010D941601D0
:100050000D9416010D9416010D9416010D941601C0
:100060000D9416010D9416010D9416010D941601B0
:100070000D9416010D9416010D9416010D941601A0
:100080000D9416010D9418010D9416010D9416018E
:100090000D9416010D9416010D9416010D94160180
:1000A0000D9416010D9416010D9416010D94160170
:1000B0000D9416010D9416010D9416010D94160160
:1000C0000D9416010D9416010D9416010D94160150
:1000D0000D9416010D9416010D9416010D94160140
:1000E0000D9416010D9416010D9416010D94160130
:1000F0000D9416010D9416010D9416010D94160120
:100100000D9416010D9416010D9416010D9416010F
:100110000D9416010D9416010D9416010D941601FF
:100120000D9416010D9416010D9416010D941601EF
:100130000D9416010D9416010D9416010D941601DF
:100140000D9416010D9416010D9416010D941601CF
:100150000D9416010D9416010D9416010D941601BF
:100160000D9416010D9416010D9416010D941601AF
:100170000D9416010D9416010D9416010D9416019F
:100180000D9416010D9416010D9416010D9416018F
:100190000D9416010D9416010D9416010D9416017F
:1001A0000D9416010D9416010D9416010D9416016F
:1001B0000D9416010D9416010D9416010D9416015F
:1001C0000D9416010D9416010D9416010D9416014F
:1001D0000D9416010D9416010D9416010D9416013F
:1001E0000D9416010D94160111241FBECFEFDFE30D
:1001F000DEBFCDBF01E00CBF10E2A0E0B0E2EAE05C
:10020000FDE002E00BBF02C007900D92A030B107E5
:10021000D9F71BBE10E2A0E0B0E201C01D92A730EA
:10022000B107E1F70F94E5020D9483060D940000E9
:100230001F920F920FB60F920BB60F9211248F934D
:10024000AF93BF93EF93FF93E0ECF1E08585837F5D
:100250008587809104208093480080910520A0EA42
:10026000B0E08C938091032012968C9380910620AD
:100270008587809102208FBFFF91EF91BF91AF9151
:100280008F910F900BBE0F900FBE0F901F9018957F
:10029000E0EAF0E08281806498ED94BF8283089563
:1002A000E0EAF0E082818F7B98ED94BF828308952D
:1002B000E8E4F0E08081809304201082E0EAF0E03E
:1002C0008081809305208281809303208281887FB2
:1002D000846082838FB7809302207894E0ECF1E011
:1002E0008585809306200895CF92DF92EF92FF924A
:1002F000CF93DF936B017C01EA010F945801C70192
:10030000B601AE010F940C02DF91CF91FF90EF90F8
:10031000DF90CF900895CF92DF92EF92FF926B0122
:100320007C010F945801C701B6010F940602FF909B
:10033000EF90DF90CF9008950F9458010F945102E1
:100340000895CF92DF92EF92FF926B017C010F94A0
:100350005801C701B6010F942402FF90EF90DF907F
:10036000CF9008950895813610F08755089581340F
:1003700010F087530895803310F08053089580E083
:1003800008951F93CF93DF930F92CDB7DEB76983A4
:100390000F94B301182F6981862F0F94B301129522
:1003A000107F810F0F90DF91CF911F9108953BB780
:1003B0008BBFFB0186913BBF08953BB78BBFFB0111
:1003C000879196913BBF089542E083C041E081C090
:1003D0008093C00188278093C1018093C20147E0C8
:1003E00068D0CB0108958093C40148E062C0809139
:1003F000D00108953BB748E10D9498063BB74AE118
:100400000D9498063BB740E20D9498063BB78BBF1E
:10041000CB0142E20D9498063BB78BBFCB010A019A
:1004200043E20D9498063BB76BBFFA0119BEDC019D
:1004300040E04093CA0150E0879197918D939D933E
:100440005A95D1F73BBF08953BB78BBFCB0144E230
:100450000D9498063BB78BBFCB0145E20D949806EF
:100460003BB746E20D9498063BB78BBFCB014AE2FF
:100470000D9498063BB78BBFCB014CE20D949806C8
:100480003BB78BBFCB014DE20D94980648E311C0FA
:1004900049E30FC028ED2093340021E02093CC01E4
:1004A00008952091CF0127FDFCCF22272093CA0178
:1004B00008954093CA0128ED31E020933400309331
:1004C000CB016091C4017091C5018091C60199274B
:1004D0000895FC014093CA018491089520EA36E80A
:1004E00041E050E00F940506DC01CB01E3E0B69556
:1004F000A79597958795EA95D1F7805A9648A14098
:10050000B040BC01CD012AE638E140E050E00F9454
:100510002406E0EAF8E02683306C37831382858175
:10052000887F836085838CE184830895CF93C82F6F
:100530008D3019F48AE00F9496028091A10885FF0E
:10054000FCCFC093A008CF9108958091A10887FFA8
:10055000FCCF8091A00808958F708A3010F0895ADE
:1005600001C0805D0F9496020895CF93C82F8295A5
:100570008F700F94AC028C2F0F94AC02CF91089522
:10058000CF93DF93EC018D2F82958F700F94AC0287
:100590008D2F0F94AC02CE01F4E096958795FA95D5
:1005A000E1F70F94AC028C2F0F94AC02DF91CF9146
:1005B0000895CF93DF93EC0102C00F9496028991C6
:1005C0008823D9F7DF91CF910895CF93DF93CDB7EB
:1005D000DEB7C555D040CDBFDEBF0F944801F894BB
:1005E000E0E5F0E0128285E08093500088E08583AA
:1005F000809150008061809350008091510084FF71
:10060000FCCF88ED84BF94E090934000E0E4F6E0F6
:1006100098E1928B938B98E090934106E0E0F8E0AC
:1006200091E090930008118212821382148225E0D7
:10063000E0E4F0E02383E0E0F4E028EB3BE0248713
:100640003587909300041086118684BF90938000B4
:1006500021E1CC24DD247601E0E0F8E004C08091C3
:10066000030481FD06C08091480682FDF8CF10E0AA
:1006700001C011E010A211A204C08091030481FD09
:1006800005C08091480682FFF8CF01C011E02131FA
:1006900050F48091200890912108A0E0B0E0C80EAD
:1006A000D91EEA1EFB1E215021F01123E1F211E0B8
:1006B00002C0113039F5E0E0F8E010920008118234
:1006C00010A211A2E0E4F6E0128A138AE0EAF8E050
:1006D0001382148283E08583168217820F9450015F
:1006E000109200041CBE88ED84BF109240000000F0
:1006F00010935000E0E5F0E01582E0910020F091C9
:100700000120199564E0F694E794D794C7946A950C
:10071000D1F78FE39CE90197F1F700C00000C70112
:10072000B6010F946E020F94A5020F94A5028535B1
:1007300009F0BDCF0F94A502853509F0B8CF0F940D
:10074000A502853509F0B3CF83E60F94960284E3C2
:100750000F94960285E30F94960282E60F94960218
:1007600082E30F94960280E20F94960286E70F943C
:10077000960282E30F9496028EE20F94960289E32A
:100780000F9496028BE40F9496021D8A8DE00F94CD
:1007900096028EE30F94960281E10F94960210E088
:1007A0000F94A502E5E1F0E0EC0FFD1FE10FF11D54
:1007B00080838535A9F3833019F488E58D8B03C0D8
:1007C0001F5F8A3069F7812F90E0FE01E80FF91F63
:1007D000148AFC01329725E130E02C0F3D1FE20F17
:1007E000F31F80818D3009F4108283E10F9496020B
:1007F000CE0145960F94D9029D89973661F09836BF
:1008000020F4953609F0FBC13EC09D36E1F19037EA
:1008100009F0F5C17EC08BE20F9496028DE00F9433
:10082000960281E10F9496028FE39CE90197F1F71C
:1008300000C00000E0E0F8E010920008118210A271
:1008400011A2E0E4F6E0128A138AE0EAF8E01382EB
:10085000148283E08583168217820F9450011092D0
:1008600000041CBE88ED84BF10924000000081E0AF
:1008700080935000E0E5F0E01582E0910020F091D7
:100880000120199583CF8F89688D66969FAF6697F3
:100890000F94C101182F898D6A8D0F94C101629642
:1008A0001FAF629761961FAE619762960EAD1FAD46
:1008B0006297080F111D8E898737B9F48B8D6C8D67
:1008C0000F94C101F82E66969FAD6697953641F458
:1008D0008091CF0187FDFCCFC8016F2D0F9460067A
:1008E0008D898D3611F4F801F0828D89853629F4D1
:1008F000C8010F944606182F02C0F80110818BE240
:100900000F9496028DE00F949602812F0F94B502FA
:100910003DCF8BE20F9496028DE00F94960221E07A
:100920002A962FAF2A978E89853619F02A961FAE00
:100930002A9729961EAE1FAE2997222433244424D9
:100940004A94542C320181E10F94960210E00F94E6
:10095000A502E5E1F0E0EC0FFD1FE10FF11D808342
:100960001F5F8A30A1F783E10F949602E4E1F0E083
:10097000EC0FFD1FE10FF11D10828E896F890F941E
:10098000C101F82E888D698D0F94C101082F2E9614
:100990008FAF2E972D961FAE2D978A8D6B8D0F944E
:1009A000C1012E96CEACDFAC2E97C80ED11C8C8D1B
:1009B0006D8D0F94C101182F0F0D080F0C0DEF2D29
:1009C000F0E09F01220F331F60962EAF3FAF60977C
:1009D000AEE1B0E0AC0FBD1FA20FB31F3596EE0F16
:1009E000FF1F81E090E08C0F9D1FE80FF91F8C9195
:1009F00064890F94C10165968FAF65971230F1F449
:100A00008E8D6F8D0F94C1012C968FAF2C972B96E6
:100A10001FAE2B9788A169A10F94C1012C962EAD12
:100A20003FAD2C97280F311D29962EAF3FAF299748
:100A30002C968FAD2C97820F080F81C0113009F4CE
:100A40007CC0112309F07BC03FEF43163FEF5306F4
:100A50003FEF63063FEF730619F4260166247724FF
:100A600029968EAD9FAD299724E0880F991F2A956E
:100A7000E1F74C01AA24BB24840C951CA61CB71CCE
:100A8000DD24F02E4EC0EEE1F0E0EC0FFD1FE00F94
:100A9000F11FAFE1B0E0AC0FBD1FA00FB11F80810F
:100AA0006C910F94C101E82EA0E2B0E0AC0FBD1F25
:100AB000A00FB11FE1E2F0E0EC0FFD1FE00FF11F0E
:100AC0008C9160810F94C101282F8E2D820FF80E1A
:100AD0002A963FAD2A97313049F4E1E0F0E0EC0F7F
:100AE000FD1FE20DF31DE082218315C0B10180E0FE
:100AF00090E0680D791D8A1D9B1D64962FAF649749
:100B000063961FAE639764964EAD5FAD64974E0DCE
:100B1000511D0F94740182E090E0280E391E94E07C
:100B2000D90E0D2D10E060962EAD3FAD60970217E7
:100B300013070CF4A8CF0F2D02C011E001C010E084
:100B400065963FAD6597030F09F059C08EE20F948B
:100B5000960280E0281682E0380610F4812F01C04A
:100B600081E02A962FAD2A97213019F0813009F0C3
:100B700042C029962EAD3FAD29976901EE24FF248E
:100B800084E0CC0CDD1CEE1CFF1C8A95D1F7C40C54
:100B9000D51CE61CF71C2A963FAD2A97313059F434
:100BA0008091CF0187FDFCCFCE010196B601A10156
:100BB0000F94560617C080E0C81680E0D80682E081
:100BC000E80680E0F806D8F4C701B6010F948B015F
:100BD0000F949C01C701B6010F94A1010F949C01D1
:100BE0000F94B2018AE20F94960222243324442403
:100BF0004A94542C3201112309F4A5CE02C08DE28F
:100C000001C08BE20F949602C1CD629FD001739F09
:100C1000F001829FE00DF11D649FE00DF11D929F98
:100C2000F00D839FF00D749FF00D659FF00D9927D7
:100C3000729FB00DE11DF91F639FB00DE11DF91FFB
:100C4000BD01CF0111240895A1E21A2EAA1BBB1BDE
:100C5000FD010DC0AA1FBB1FEE1FFF1FA217B30788
:100C6000E407F50720F0A21BB30BE40BF50B661F9E
:100C7000771F881F991F1A9469F760957095809562
:100C800090959B01AC01BD01CF01089503D08081F7
:100C900099270895E0ECF1E0378537FDFDCF3485E5
:100CA00038603487FC01E050F04F0895DC01CB013F
:100CB00003C02D910F94610641505040D0F7089524
:100CC000262FE0ECF1E0378537FDFDCF3485377F07
:100CD0003487378531FF09C036E3328738ED34BFBA
:100CE00031E03387378537FDFDCF33E332878083AB
:100CF00091831282248325E3228728ED31E024BFEB
:0A0D0000338701960895F894FFCFA1
:100D0A00EE27FF2719BEDC0143E24093CA0150E0F7
:100D1A002DE90D901D9020933400E89532965A954E
:100D2A00C1F7112408950D94A406FC014093CA0149
:100D3A002DE920933400E89511243BBF0895FC0166
:100D4A004093CA014F935F936F9364E06093A2004C
:100D5A004CE051E0509348000DE900933400E895C7
:100D6A004093CD01889511243BBF6F915F914F91BC
:020D7A000895DA
:0400000320000000D9
:00000001FF
