:1000000071C0000086C0000084C0000082C00000F3
:1000100080C000007EC000007CC000007AC00000EC
:1000200078C0000076C0000074C0000072C00000FC
:1000300070C000006EC000006CC000006AC000000C
:1000400068C0000066C0000064C0000062C000001C
:1000500060C000005EC000005CC000005AC000002C
:1000600058C0000056C0000054C0000052C000003C
:1000700050C000004EC000004CC000004AC000004C
:1000800048C0000046C0000044C0000042C000005C
:1000900040C000003EC000003CC000003AC000006C
:1000A00038C0000036C0000034C0000032C000007C
:1000B00030C000002EC000002CC000002AC000008C
:1000C00028C0000026C0000024C0000022C000009C
:1000D00020C000001EC000001CC000001AC00000AC
:1000E00018C0000011241FBECFEFD1E2DEBFCDBF8C
:1000F00000E00CBF12E0A0E0B2E0E8ECF3E000E0CA
:100100000BBF02C007900D92AA32B107D9F7F6D003
:1001100059C176CF81309105A9F08230910511F156
:10012000892B79F580E28093C00088E18093C1003B
:1001300086E08093C20088E090E09093C5008093B1
:10014000C400089580E28093C80088E18093C900CC
:1001500086E08093CA0088E090E09093CD00809381
:10016000CC00089580E28093D00088E18093D10094
:1001700086E08093D20087E690E09093D50080934C
:10018000D4000895009719F0019729F008C08091D4
:10019000C000807808958091C8008078089580E03C
:1001A00008958130910561F08230910581F0892BAD
:1001B000A9F48091C0008823E4F78091C6000895D7
:1001C0008091C8008823E4F78091CE000895809143
:1001D000D0008823E4F78091D600089580E0089548
:1001E0008130910561F08230910581F0892BA1F475
:1001F0008091C00085FFFCCF6093C6000895809178
:10020000C80085FFFCCF6093CE0008958091D00098
:1002100085FFFCCF6093D60008950F931F93CF9373
:10022000DF938C01EB0103C0C801DADF21966881FE
:100230006111FACFDF91CF911F910F910895AF9285
:10024000BF92CF92DF92EF92FF920F931F93CF93C3
:10025000DF93CDB7DEB7CF5FD1090FB6F894DEBF1D
:100260000FBECDBF7C016B018A01590102C0C801DC
:1002700098DFC80187DF8111FACF1A821982FE0147
:1002800033968DEFDF011D928A95E9F7B701CE0114
:1002900001967C0176D0F70101900020E9F73197B3
:1002A0008DE09AE0918380831282B701C801B5DFA7
:1002B000E12CF12CC80166DF8823E1F3C80171DF6E
:1002C000F601EE0DFF1D80839FEFE91AF90AB501D3
:1002D000C6015ED0892B71F3C150DF4F0FB6F89481
:1002E000DEBF0FBECDBFDF91CF911F910F91FF9069
:1002F000EF90DF90CF90BF90AF900895CF93DF93B2
:10030000CDB7DEB7CF5FD1090FB6F894DEBF0FBE11
:10031000CDBF2BD01A821982FE0133968DEFDF01FB
:100320001D928A95E9F760E072E080E090E075DF69
:100330002EE032E041E050E0BE016F5F7F4F81E18F
:1003400092E07DDFBE016F5F7F4F80E090E065DF70
:1003500064E172E080E090E060DF81E090E021DF26
:10036000682F80E090E03CDFF8CF8FEF8DB98EB141
:100370008F7E8EB980E090E0CDDE81E090E0CACE45
:100380000895FB01DC0101900D920020E1F7089532
:10039000FB0151915523A9F0BF01DC014D91451797
:1003A0004111E1F759F4CD010190002049F04D9140
:1003B00040154111C9F3FB014111EFCF81E090E0FD
:0803C00001970895F894FFCFA6
:1003C800544553542053544152542E0D0A004F4B58
:1003D80000415400476F696E6720746F2077686921
:0A03E8006C65206C6F6F700D0A0049
:00000001FF
