:1000000071C0000086C0000084C0000082C00000F3
:1000100080C000007EC000007CC000007AC00000EC
:1000200078C0000076C0000074C0000072C00000FC
:1000300070C000006EC000006CC000006AC000000C
:1000400068C0000066C0000064C0000062C000001C
:1000500060C000005EC000005CC000005AC000002C
:1000600058C0000056C0000054C0000052C000003C
:1000700050C000004EC000004CC000004AC000004C
:1000800048C0000046C0000044C0000042C000005C
:1000900040C000003EC000003CC000003AC000006C
:1000A00038C0000036C0000034C0000032C000007C
:1000B00030C000002EC000002CC000002AC000008C
:1000C00028C0000026C0000024C0000022C000009C
:1000D00020C000001EC000001CC000001AC00000AC
:1000E00018C0000011241FBECFEFD1E2DEBFCDBF8C
:1000F00000E00CBF12E0A0E0B2E0ECE7F3E000E0CB
:100100000BBF02C007900D92A031B107D9F718D1EB
:1001100033C176CFCF93DF931F921F92CDB7DEB757
:100120009A83898389819A818130910521F1823076
:1001300091051CF4892B41F04DC08230910591F15D
:10014000039709F446C046C080EC90E020E2FC0131
:10015000208381EC90E028E1FC01208382EC90E098
:1001600026E0FC01208384EC90E027E630E0FC01EF
:10017000318320832FC088EC90E020E2FC012083B3
:1001800089EC90E028E1FC0120838AEC90E026E0F5
:10019000FC0120838CEC90E027E630E0FC01318309
:1001A000208318C080ED90E020E2FC01208381EDE7
:1001B00090E028E1FC01208382ED90E026E0FC0144
:1001C000208384ED90E027E630E0FC01318320833A
:1001D00001C0000000000F900F90DF91CF910895B3
:1001E000CF93DF931F921F92CDB7DEB79A83898397
:1001F00089819A8181309105A1F082309105E9F0E1
:10020000892B19F0000080E023C0000080EC90E012
:10021000FC0180818823D4F786EC90E0FC0180818A
:1002200017C0000088EC90E0FC0180818823D4F79F
:100230008EEC90E0FC0180810BC0000080ED90E02E
:10024000FC0180818823D4F786ED90E0FC01808159
:100250000F900F90DF91CF910895CF93DF9300D04F
:10026000CDB7DEB79A8389836B8389819A81813088
:100270009105B9F08230910529F1892B09F033C03D
:10028000000080EC90E0FC018081882F90E080727B
:100290009927892BB1F386EC90E02B81FC01208318
:1002A00022C0000088EC90E0FC018081882F90E063
:1002B00080729927892BB1F38EEC90E02B81FC01A1
:1002C000208311C0000080ED90E0FC018081882F28
:1002D00090E080729927892BB1F386ED90E02B8115
:1002E000FC012083000000000F900F900F90DF9121
:1002F000CF910895CF93DF9300D01F92CDB7DEB793
:100300009A8389837C836B830DC08B819C81FC01E4
:10031000208189819A81622FA0DF8B819C81019647
:100320009C838B838B819C81FC018081882369F76E
:1003300000000F900F900F900F90DF91CF910895D4
:10034000CF93DF931F92CDB7DEB780E090E0E2DE7F
:1003500081E090E0DFDE82E090E0DCDE60E072E0F1
:1003600080E090E0C7DF80E090E03ADF8983698138
:0C03700080E090E072DFF7CFF894FFCF40
:10037C005374617274696E672047534D0D0A000007
:00000001FF
